S0140000526164617250726F6A6563742E737265634F
S11300000C9434000C9479000C9451000C9451001D
S11300100C9451000C9451000C9451000C94510018
S11300200C9451000C9451000C9451000C94510008
S11300300C9451000C9451000C9451000C945100F8
S11300400C9451000C9451000C9451000C945100E8
S11300500C9451000C9451000C9451000C945100D8
S11300600C9451000C94510011241FBECFEFD8E022
S1130070DEBFCDBF11E0A0E0B1E0ECE3F3E002C0ED
S113008005900D92A431B107D9F721E0A4E1B1E0C4
S113009001C01D92A631B207E1F70E9453000C94EF
S11300A09C010C9400000E94280180E384B9E9E6D5
S11300B0F0E0808181608083E89A78942AE330E0DC
S11300C02C9A84E68A95F1F72C98809102019091FC
S11300D00301B9010E946501660F771F7093010146
S11300E0609300016D30710514F42D9AE9CF2D98B9
S11300F0E7CF1F920F920FB60F9211242F933F93C5
S11301006F937F938F939F93AF93BF93EF93FF93DB
S113011080911401909115010197D9F410928100F6
S1130120E4E8F0E020813181AFE9B6E40E9479018E
S1130130929582958F7089279F70892790930301E8
S11301408093020111821082109215011092140101
S11301500BC0E1E8F0E080818160808381E090E081
S11301609093150180931401FF91EF91BF91AF918A
S11301709F918F917F916F913F912F910F900FBE1F
S11301800F901F9018951092B90080E28093B800E8
S1130190089584EA8093BC00ECEBF0E0808188232E
S11301A0ECF708958093BB0084E88093BC00ECEBEB
S11301B0F0E080818823ECF708959F92AF92BF927C
S11301C0CF92DF92EF92FF920F931F93CF93DF931F
S11301D00F2EF4E0AF2EF1E0BF2EF02D0F2EF4E140
S11301E0EF2EF1E0FF2EF02D85010F2EFCEBCF2E2C
S11301F0D12CF02D0F2EF4E99F2EF02D1BC00E9460
S1130200C90080EE0E94D200F80180810E94D200D1
S1130210888122960E94D200F601908284EF91E0B8
S11302200E945401EC16FD0651F70E5F1F4FE016B5
S1130230F10611F0E501E3CFDF91CF911F910F910A
S1130240FF90EF90DF90CF90BF90AF909F90089574
S11302500E94C3000E94C90080EE0E94D20081E285
S11302600E94D200CCEBD0E014E918830E94C900AC
S113027080EE0E94D20080EA0E94D20018830E947D
S1130280C90080EE0E94D20083EE0E94D20018833F
S11302900E94C90080EE0E94D20081E80E94D20030
S11302A018830E94DD00FDCF181619066CF420E0B7
S11302B030E0E7E8F3E13197F1F700C000002F5F89
S11302C03F4F82179307A9F7089597FB072E16F45B
S11302D0009407D077FD09D00E94880107FC05D05F
S11302E03EF4909581959F4F0895709561957F4F49
S11302F00895A29FB001B39FC001A39F700D811DFB
S11303001124911DB29F700D811D1124911D08951A
S1130310AA1BBB1B51E107C0AA1FBB1FA617B70727
S113032010F0A61BB70B881F991F5A95A9F7809543
S10F03309095BC01CD010895F894FFCF16
S113033C3200B80B0100030007000F001F003F0040
S107034C7F00FF002B
S9030000FC
