:1000000071C00000AEC000008CC000008AC00000BB
:1000100088C0000086C0000084C0000082C00000CC
:1000200080C000007EC000007CC000007AC00000DC
:1000300078C0000076C0000074C0000072C00000EC
:1000400070C000006EC000006CC000006AC00000FC
:1000500068C0000066C0000064C0000062C000000C
:1000600060C000005EC000005CC000005AC000001C
:1000700058C0000056C0000054C0000052C000002C
:1000800050C000004EC000004CC000004AC000003C
:1000900048C0000046C0000044C0000042C000004C
:1000A00040C000003EC000003CC000003AC000005C
:1000B00038C0000036C0000034C0000032C000006C
:1000C00030C000002EC000002CC000002AC000007C
:1000D00028C0000026C0000024C0000022C000008C
:1000E00020C0000011241FBECFEFD1E2DEBFCDBF84
:1000F00000E00CBF12E0A0E0B2E0EEE1F2E000E0D0
:100100000BBF02C007900D92A230B107D9F722E0D1
:10011000A2E0B2E001C01D92A430B207E1F702D024
:100120007CC06ECF80E484B9E9E6F0E08081816034
:100130008083E89A789480E485B92FEF39E698E1D6
:10014000215030409040E1F700C0000015B82FEF7B
:1001500039E698E1215030409040E1F700C00000BE
:10016000EBCF1F920F920FB60F9211240BB60F9286
:100170002F933F936F937F938F939F93AF93BF93EF
:10018000EF93FF9380910202909103020197D1F4C3
:1001900010928100E4E8F0E020813181AFE9B6E41B
:1001A0002DD0929582958F7089279F708927909383
:1001B00001028093000211821082109203021092B9
:1001C00002020BC0E1E8F0E080818160808381E081
:1001D00090E09093030280930202FF91EF91BF9110
:1001E000AF919F918F917F916F913F912F910F9040
:1001F0000BBE0F900FBE0F901F901895A29FB001DD
:10020000B39FC001A39F700D811D1124911DB29F4A
:0E021000700D811D1124911D0895F894FFCFEB
:02021E00B80B1B
:00000001FF
