:1000000071C00000B2C000008CC000008AC00000B7
:1000100088C0000086C0000084C0000082C00000CC
:1000200080C000007EC000007CC000007AC00000DC
:1000300078C0000076C0000074C0000072C00000EC
:1000400070C000006EC000006CC000006AC00000FC
:1000500068C0000066C0000064C0000062C000000C
:1000600060C000005EC000005CC000005AC000001C
:1000700058C0000056C0000054C0000052C000002C
:1000800050C000004EC000004CC000004AC000003C
:1000900048C0000046C0000044C0000042C000004C
:1000A00040C000003EC000003CC000003AC000005C
:1000B00038C0000036C0000034C0000032C000006C
:1000C00030C000002EC000002CC000002AC000007C
:1000D00028C0000026C0000024C0000022C000008C
:1000E00020C0000011241FBECFEFD1E2DEBFCDBF84
:1000F00000E00CBF12E0A0E0B2E0E4E7F2E000E0D4
:100100000BBF02C007900D92A430B107D9F722E0CF
:10011000A4E0B2E001C01D92A630B207E1F702D020
:10012000A7C06ECF80E484B9E9E6F0E08081816009
:100130008083E89A78942AE330E0289A80E58A95CB
:10014000F1F728988091020290910302B9015AD0E8
:10015000660F771F70930102609300026D30710586
:1001600014F42E9AEACF2E98E8CF1F920F920FB672
:100170000F9211240BB60F922F933F936F937F939F
:100180008F939F93AF93BF93EF93FF93809104025C
:10019000909105020197D1F410928100E4E8F0E01B
:1001A00020813181AFE9B6E440D0929582958F707D
:1001B00089279F70892790930302809302021182FE
:1001C000108210920502109204020BC0E1E8F0E0E8
:1001D00080818160808381E090E09093050280932C
:1001E0000402FF91EF91BF91AF919F918F917F9109
:1001F0006F913F912F910F900BBE0F900FBE0F90FC
:100200001F90189597FB072E16F4009406D077FDE3
:1002100008D01AD007FC05D03EF4909581959F4FE9
:100220000895709561957F4F0895A29FB001B39F87
:10023000C001A39F700D811D1124911DB29F700DEF
:10024000811D1124911D0895AA1BBB1B51E107C0FC
:10025000AA1FBB1FA617B70710F0A61BB70B881F56
:10026000991F5A95A9F780959095BC01CD010895E5
:04027000F894FFCF30
:040274003200B80B91
:00000001FF
