:100000000C9434000C940A010C9451000C9451008F
:100010000C9451000C9451000C9451000C9451001C
:100020000C9451000C9451000C9451000C9451000C
:100030000C9451000C9451000C9451000C945100FC
:100040000C9451000C9451000C9451000C945100EC
:100050000C9451000C9451000C9451000C945100DC
:100060000C9451000C94510011241FBECFEFD8E026
:10007000DEBFCDBF11E0A0E0B1E0E0E6F4E002C0F9
:1000800005900D92A632B107D9F721E0A6E2B1E0C2
:1000900001C01D92A033B207E1F70E9453000C94F7
:1000A0002E020C9400000E94A0010E948C0180ECA2
:1000B0008AB980E384B9E9E6F0E0808181608083D9
:1000C000E89A7894C4E7D0E003E010E08091000162
:1000D000909101018730910511F0892B11F40E9454
:1000E000E10110922B0110922A010E94DA012FEFF8
:1000F00089E698E1215080409040E1F700C000007F
:1001000080912A0190912B01019690932B0180936D
:100110002A01039754F30E94D501892B51F4809151
:1001200000019091010101969093010180930001DB
:100130006EC080910001909101010197909301019F
:100140008093000164C02C9A80E58A95F1F72C9881
:100150008091040190910501BE010E9406027093F6
:100160000301609302016350710966317105C8F49F
:100170002D9A40912801509129018091020190917E
:100180000301840F951F909329018093280180918A
:1001900026019091270101969093270180932601D3
:1001A00001C02D982150310971F66091260170919E
:1001B000270161157105C1F08091280190912901F5
:1001C0000E9406027B0180910001909101010E9432
:1001D0005201C701B8010E9406028091000190916E
:1001E00001010E946A0106C0809100019091010105
:1001F0000E945201109227011092260110922901AB
:100200001092280188EE93E00E94F5015FCF24E66A
:1002100030E099CF1F920F920FB60F9211248F9357
:100220009F93EF93FF9380912C0190912D01019763
:1002300089F410928100E4E8F0E08081918190934C
:100240000501809304011182108210922D011092F9
:100250002C010BC0E1E8F0E080818260808381E0C6
:1002600090E090932D0180932C01FF91EF919F914D
:100270008F910F900FBE0F901F90189584EA809376
:10028000BC00ECEBF0E080818823ECF708958093CC
:10029000BB0084E88093BC00ECEBF0E08081882315
:1002A000ECF70895CF93DF93EC010E943E0180EEBE
:1002B0000E944701CC0FDD1FCA5EDE4F88810E947D
:1002C000470180E00E94470184E98093BC00DF91F0
:1002D000CF9108950F931F93CF93DF938C01EB0180
:1002E0000E943E0180EE0E944701000F111FF8019D
:1002F000EA5EFE4F80810E944701CC0FDD1FCA5F7E
:10030000DE4F88810E94470184E98093BC00DF9121
:10031000CF911F910F9108950F931F93CF93DF9368
:10032000C6E1D1E006E211E0899199910E94520163
:10033000C017D107C9F7DF91CF911F910F91089591
:100340001F93CF93DF931092B90080E28093B8009F
:100350000E943E0180EE0E94470181E20E94470117
:10036000CCEBD0E014E918830E943E0180EE0E949D
:10037000470180EA0E94470118830E943E0180EEF7
:100380000E94470183EE0E94470118830E943E01AC
:1003900080EE0E94470181E80E94470118830E9475
:1003A0008C01DF91CF911F91089580912E01909142
:1003B0002F0108955F9A8AE68A95F1F700C05F9849
:1003C000089580912E0190912F01892B41F481E0B5
:1003D00090E090932F0180932E015E9A08951092E1
:1003E0002F0110922E015E980895181619066CF4CC
:1003F00020E030E0E7E8F3E13197F1F700C00000DA
:100400002F5F3F4F82179307A9F7089597FB072E99
:1004100016F4009407D077FD09D00E941A0207FC59
:1004200005D03EF4909581959F4F08957095619504
:100430007F4F0895AA1BBB1B51E107C0AA1FBB1F1A
:10044000A617B70710F0A61BB70B881F991F5A9560
:10045000A9F780959095BC01CD010895F894FFCF40
:1004600003003200B80B80008100830087008F00FA
:100470009F00BF00FF00000002000400060008000B
:060480000A000C000E0052
:00000001FF
