:100000000C9434000C9415010C9451000C94510084
:100010000C9451000C9451000C9451000C9451001C
:100020000C9451000C9451000C9451000C9451000C
:100030000C9451000C9451000C9451000C945100FC
:100040000C9451000C9451000C9451000C945100EC
:100050000C9451000C9451000C9451000C945100DC
:100060000C9451000C94510011241FBECFEFD8E026
:10007000DEBFCDBF11E0A0E0B1E0E6E7F4E002C0F2
:1000800005900D92A232B107D9F721E0A2E2B1E0CA
:1000900001C01D92AE32B207E1F70E9453000C94EA
:1000A00039020C9400000E94AB010E94970180EC81
:1000B0008AB980E384B9E9E6F0E0808181608083D9
:1000C000E89A7894C4E7D0E003E010E08091000162
:1000D000909101018730910519F0892B09F07BC0BF
:1000E0000E94EC0178C0809100019091010101967D
:1000F000909301018093000195C08091000190913F
:100100000101019790930101809300018BC02C9A0B
:1001100080E58A95F1F72C9880912801909129012A
:10012000BE010E9411027093270160932601635063
:10013000710966317105C8F42D9A409124015091DE
:1001400025018091260190912701840F951F90939E
:100150002501809324018091220190912301019631
:10016000909323018093220101C02D9821503109E1
:1001700071F6609122017091230161157105C1F042
:1001800080912401909125010E9411027B018091B0
:100190000001909101010E945D01C701B8010E9418
:1001A000110280910001909101010E94750106C029
:1001B00080910001909101010E945D011092230144
:1001C00010922201109225011092240188EE93E0F2
:1001D0000E9400027BCF0E94E5019FEF29E688E1A3
:1001E000915020408040E1F700C000000E94E501EE
:1001F0009FEF29E688E1915020408040E1F700C060
:1002000000000E94E5019FEF29E688E1915020401F
:100210008040E1F700C000000E94E001892B09F452
:1002200062CF6BCF24E630E072CF1F920F920FB6F1
:100230000F9211248F939F93EF93FF9380912A0144
:1002400090912B01019789F410928100E4E8F0E08D
:1002500080819181909329018093280111821082DD
:1002600010922B0110922A010BC0E1E8F0E080818E
:100270008260808381E090E090932B0180932A013B
:10028000FF91EF919F918F910F900FBE0F901F9054
:10029000189584EA8093BC00ECEBF0E08081882321
:1002A000ECF708958093BB0084E88093BC00ECEBEE
:1002B000F0E080818823ECF70895CF93DF93EC0181
:1002C0000E94490180EE0E945201CC0FDD1FCE5EDC
:1002D000DE4F88810E94520180E00E94520184E931
:1002E0008093BC00DF91CF9108950F931F93CF931C
:1002F000DF938C01EB010E94490180EE0E945201C4
:10030000000F111FF801EE5EFE4F80810E94520126
:10031000CC0FDD1FCE5FDE4F88810E94520184E941
:100320008093BC00DF91CF911F910F9108950F939F
:100330001F93CF93DF93C2E1D1E002E211E08991F4
:1003400099910E945D01C017D107C9F7DF91CF9144
:100350001F910F9108951F93CF93DF931092B900CF
:1003600080E28093B8000E94490180EE0E94520111
:1003700081E20E945201CCEBD0E014E918830E9484
:10038000490180EE0E94520180EA0E9452011883C6
:100390000E94490180EE0E94520183EE0E945201A8
:1003A00018830E94490180EE0E94520181E80E9458
:1003B000520118830E949701DF91CF911F910895F8
:1003C00080912C0190912D0108955F9A8AE68A957B
:1003D000F1F700C05F98089580912C0190912D0154
:1003E000892B41F481E090E090932D0180932C01C2
:1003F0005E9A089510922D0110922C015E98089536
:10040000181619066CF420E030E0E7E8F3E13197C4
:10041000F1F700C000002F5F3F4F82179307A9F745
:10042000089597FB072E16F4009407D077FD09D0A6
:100430000E94250207FC05D03EF4909581959F4FC0
:100440000895709561957F4F0895AA1BBB1B51E1DC
:1004500007C0AA1FBB1FA617B70710F0A61BB70B34
:10046000881F991F5A95A9F780959095BC01CD01D9
:060470000895F894FFCF8F
:10047600030080008100830087008F009F00BF007B
:10048600FF00000002000400060008000A000C003D
:020496000E0056
:00000001FF
