:100000000C9434000C947B000C9451000C9451001F
:100010000C9451000C9451000C9451000C9451001C
:100020000C9451000C9451000C9451000C9451000C
:100030000C9451000C9451000C9451000C945100FC
:100040000C9451000C9451000C9451000C945100EC
:100050000C9451000C9451000C9451000C945100DC
:100060000C9451000C94510011241FBECFEFD8E026
:10007000DEBFCDBF11E0A0E0B1E0EEE2F3E002C0F0
:1000800005900D92A432B107D9F721E0A4E2B1E0C6
:1000900001C01D92A632B207E1F70E9453000C94F2
:1000A00095010C9400000E9427010E94020180E348
:1000B00084B9E9E6F0E0808181608083E89A7894F1
:1000C00020EA33E02C9A80E58A95F1F72C9880910C
:1000D000020190910301B9010E946D017093010129
:1000E00060930001655071096531710510F42D9A16
:1000F000E9CF2D98E7CF1F920F920FB60F921124E0
:100100008F939F93EF93FF9380912401909125010A
:10011000019789F410928100E4E8F0E080819181F8
:1001200090930301809302011182108210922501A5
:10013000109224010BC0E1E8F0E0808181608083AF
:1001400081E090E09093250180932401FF91EF914D
:100150009F918F910F900FBE0F901F90189584EA7A
:100160008093BC00ECEBF0E080818823ECF70895ED
:100170008093BB0084E88093BC00ECEBF0E08081CE
:100180008823ECF70895CF93C82F0E94AF0080EE2C
:100190000E94B8008C2F0E94B80080E00E94B80036
:1001A00084E98093BC00CF910895CF93DF93D82F3B
:1001B000C62F0E94AF0080EE0E94B8008D2F0E94D3
:1001C000B8008C2F0E94B80084E98093BC00DF91B6
:1001D000CF9108950F931F93CF93DF93C4E1D1E0A4
:1001E00004E211E0899199910E94C30084E690E0B5
:1001F0000E945C01C017D107A9F7DF91CF911F9131
:100200000F910895EF92FF920F931F93CF93DF9377
:10021000C4E1D1E00F2EF4E2EF2EF1E0FF2EF02D3D
:1002200004E011E0F80166857785899199910E9433
:10023000D50080ED97E00E945C01CE15DF0591F7B7
:10024000DF91CF911F910F91FF90EF9008951F9331
:10025000CF93DF931092B90080E28093B8000E94A0
:10026000AF0080EE0E94B80081E20E94B800CCEBA3
:10027000D0E014E918830E94AF0080EE0E94B8001D
:1002800080EA0E94B80018830E94AF0080EE0E94AE
:10029000B80083EE0E94B80018830E94AF0080EE81
:1002A0000E94B80081E80E94B80018830E94EA000A
:1002B000DF91CF911F910895181619066CF420E074
:1002C00030E0E7E8F3E13197F1F700C000002F5F7D
:1002D0003F4F82179307A9F7089597FB072E16F44F
:1002E000009407D077FD09D00E94810107FC05D05A
:1002F0003EF4909581959F4F0895709561957F4F3D
:100300000895AA1BBB1B51E107C0AA1FBB1FA6175C
:10031000B70710F0A61BB70B881F991F5A95A9F7AE
:0E03200080959095BC01CD010895F894FFCF13
:10032E003200B80B80008100830087008F009F0091
:10033E00BF00FF00000002000400060008000A00D3
:04034E000C000E0091
:00000001FF
