:100000000C9434000C9449000C9449000C94490061
:100010000C9449000C9449000C9449000C9449003C
:100020000C9449000C9449000C9449000C9449002C
:100030000C9449000C9449000C9449000C9449001C
:100040000C9449000C9449000C9449000C9449000C
:100050000C9449000C9449000C9449000C944900FC
:100060000C9449000C94490011241FBECFEFD8E036
:10007000DEBFCDBF12E0A0E0B1E0EAEAF1E002C0ED
:1000800005900D92A63BB107D9F70E944B000C9446
:10009000D3000C940000CF93DF93CDB7DEB7659704
:1000A0000FB6F894DEBF0FBECDBF8FEF8AB984B90B
:1000B00087B988E0E0E0F1E0DE011E9601900D9244
:1000C0008A95E1F78DE0E8E0F1E0DE01119601901C
:1000D0000D928A95E1F7AE01425F5F4F5E0182E1CA
:1000E000A80EB11CFE0131964F0148155905E1F1EA
:1000F000F40121914F01F0E12F9F90011124C901DA
:10010000835E9E4F6C0168EC70E0DA017A0180E05A
:1001100090E0F70111917F0115B98C01020F131FB7
:100120000B5E1E4FF801108110951BB9F6EAFA9587
:10013000F1F700C002968830910559F715B886018D
:100140008D9188B9F80180810E5F1F4F80958BB922
:10015000F6EAFA95F1F700C0AA15BB0589F718B8B9
:100160006150710991F6C1CF87ED96ED0197F1F7D6
:1001700000C00000E7EDF6ED3197F1F700C0000098
:1001800087ED96ED0197F1F700C00000E7EDF6ED81
:100190003197F1F700C0000087ED96ED0197F1F778
:0A01A00000C000009FCFF894FFCFCD
:1001AA0001020408102040800208110214081303F7
:1001BA00080604121300007F00FF00CC00CC00CC1C
:1001CA0000FF007F0000003C007E00DB00DB00DB5C
:1001DA0000FF00FF000000C300C300C300C300E724
:1001EA00007E003C0000007E00BD00C300C300C3C7
:1001FA0000FF00FF000000DB00DB00DB00DB00DBB0
:10020A0000FF00FF000000D800D800D800D800D8AE
:10021A0000FF00FF001F00DF00D800DB00DB00DB6F
:10022A0000FF00FF000000FF00FF00180018001880
:10023A0000FF00FF00C300C300C300FF00FF00C3AC
:10024A0000C300C300C000C000C000FF00FF00C31D
:10025A0000CF00CF000000C300E7007E003C00187A
:10026A0000FF00FF00030003000300030003000374
:10027A0000FF00FF00FF00FF0060007000700060D8
:10028A0000FF00FF00FF00FF001C0038007000E0C4
:10029A0000FF00FF007E00FF00C300C300C300C3CD
:1002AA0000FF007E0000007000F800CC00CC00CCFB
:1002BA0000FF00FF007E00FF00CF00DF00DB00C36D
:1002CA0000FF007E007900FB00DF00DE00DC00D8C2
:1002DA0000FF00FF00CE00DF00DB00DB00DB00DBFD
:1002EA0000FB007300C000C000C000FF00FF00C098
:1002FA0000C000C000FE00FF00030003000300036B
:10030A0000FF00FE00E000FC001E00030003001EC8
:10031A0000FC00E000FE00FF000300FF00FF0003F6
:10032A0000FF00FE004200E7007E003C003C007E29
:10033A0000E70042004000E00070003F003F00700C
:10034A0000E0004000C300E300F300FB00DF00CF41
:06035A0000C700C3000013
:00000001FF
